{
  "contractName": "HelloWorld",
  "abi": [
    {
      "inputs": [],
      "payable": false,
      "stateMutability": "nonpayable",
      "type": "constructor"
    },
    {
      "constant": false,
      "inputs": [],
      "name": "GetMessage",
      "outputs": [
        {
          "name": "",
          "type": "string"
        }
      ],
      "payable": false,
      "stateMutability": "nonpayable",
      "type": "function"
    }
  ],
  "bytecode": "0x60806040526040805190810160405280601581526020017f48656c6c6f20457468657265756d2053616c6f6e2100000000000000000000008152506000908051906020019061004f929190610062565b5034801561005c57600080fd5b50610107565b828054600181600116156101000203166002900490600052602060002090601f016020900481019282601f106100a357805160ff19168380011785556100d1565b828001600101855582156100d1579182015b828111156100d05782518255916020019190600101906100b5565b5b5090506100de91906100e2565b5090565b61010491905b808211156101005760008160009055506001016100e8565b5090565b90565b6101a4806101166000396000f300608060405260043610610041576000357c0100000000000000000000000000000000000000000000000000000000900463ffffffff16806303e33b5314610046575b600080fd5b34801561005257600080fd5b5061005b6100d6565b6040518080602001828103825283818151815260200191508051906020019080838360005b8381101561009b578082015181840152602081019050610080565b50505050905090810190601f1680156100c85780820380516001836020036101000a031916815260200191505b509250505060405180910390f35b606060008054600181600116156101000203166002900480601f01602080910402602001604051908101604052809291908181526020018280546001816001161561010002031660029004801561016e5780601f106101435761010080835404028352916020019161016e565b820191906000526020600020905b81548152906001019060200180831161015157829003601f168201915b50505050509050905600a165627a7a72305820d5d1494944a959dcbaa5b5b45489c09689d201ce60cb43e301f0a0d313c90c690029",
  "source": "pragma solidity ^0.4.17;\r\n\r\ncontract HelloWorld{\r\n\r\n\r\nfunction HelloWorld() {\r\n    // constructor\r\n  }\r\nstring message = \"Hello Ethereum Salon!\";\r\n  function GetMessage() returns (string)  {\r\n    return message;\r\n  }\r\n}",
  "sourcePath": "D:\\sabiha\\angel\\contracts\\HelloWorld.sol",
  "compiler": {
    "name": "solc",
    "version": "0.4.24+commit.e67f0147.Emscripten.clang"
  },
  "schemaVersion": "2.0.1",
  "updatedAt": "2018-08-03T18:52:37.744Z"
}